:100000000C9434000C943E000C943E000C943E0082
:100010000C943E000C943E000C943E000C943E0068
:100020000C943E000C943E000C943E000C943E0058
:100030000C943E000C943E000C943E000C943E0048
:100040000C943E000C943E000C943E000C943E0038
:100050000C943E000C943E000C943E000C943E0028
:100060000C943E000C943E0011241FBECFEFD8E04C
:10007000DEBFCDBF0E9459020C9433040C940000E3
:1000800080E480937C00EAE7F0E0808184688083EC
:1000900008956770606460937C0080917A0080644A
:1000A00080937A0080917A0086FDFCCF8091780061
:1000B0009091790008950E944900BC01990F880B26
:1000C000990B0E943A0320E030E040E85AE30E9496
:1000D000C60320E030E044EB52E40E94C60320E077
:1000E00030E044E352E40E9495020E940203CB01F7
:1000F0000895209821982298239808956130D9F086
:10010000ACF0623079F0633079F41B9B0DC02FEFB7
:1001100081EE94E0215080409040E1F700C0000063
:1001200081E008951A99F3CF80E008956111FCCF22
:10013000189BFACFECCF1999EACFF6CF5B9A8FE9EB
:100140009FE00197F1F700C000005B98089541110E
:1001500020C05A988BB18F70962F907F892B8BB9C6
:100160005B9A8FE99FE00197F1F700C000005B9870
:100170008BB18F7090E1699FB0011124682B6BB92E
:100180005B9A8FE99FE00197F1F700C000005B9850
:1001900008955A9ADFCFCF93DF93EC018FEF8AB99E
:1001A0005B988FE59AEE0197F1F700C0000040E000
:1001B00062E0CE010E94A70040E068E2CE010E940A
:1001C000A70040E06EE0CE010E94A70040E061E0A1
:1001D000CE010E94A7008FE39FE10197F1F700C0D5
:1001E000000040E060E8CE01DF91CF910C94A700C1
:1001F00041E00C94A7000F931F93CF93DF938C01E2
:10020000EB0141E077FD1AC060E20E94A700CE0139
:100210006AE070E00E946D02EC01605D7F4F41E09A
:10022000C8010E94A700BE01605D7F4F41E0C80188
:10023000DF91CF911F910F910C94A7006DE20E9466
:10024000A700D195C195D109E2CFEF92FF920F930C
:100250001F93CF937C01062F10E040E06832D0F46A
:1002600060E80E94A7000115110571F0C0E040E0B0
:1002700064E1C7010E94A700CF5F8C2F0C2E000CF9
:10028000990B801791079CF3CF911F910F91FF90CD
:10029000EF90089560EC0E94A70008521109A1F3A5
:1002A000C0E040E064E1C7010E94A700CF5F8C2F4F
:1002B0000C2E000C990B801791079CF3CF911F9186
:1002C0000F91FF90EF900895CF93DF93EC010E9480
:1002D0004000CE010E947900CE010E94CB001D8219
:1002E0001C821F821E8260E0CE010E94250168E50B
:1002F000CE010E94F8006AE3CE010E94F80069E096
:10030000CE010E94250169E5CE010E94F8006AE352
:10031000CE010E94F80068E2CE010E94250163E54B
:10032000CE010E94F80060E5CE010E94F80064E46E
:10033000CE010E94F8006AE3CE010E94F80061E35A
:10034000CE010E94250164E5CE010E94F80069E417
:10035000CE010E94F8006BE4CE010E94F8006AE32F
:10036000CE01DF91CF910C94F800CF93DF93EC0195
:1003700060E00E945B009983888361E0CE010E9467
:100380005B009B838A83DF91CF910895CF93DF93A6
:10039000EC0161E00E947E00882351F08C819D81F8
:1003A0002E813F81821B930B97FD1DC09D838C8303
:1003B00060E0CE010E947E00882359F08C819D81EF
:1003C0002E813F81820F931F853191052CF49D83EF
:1003D0008C83DF91CF91089584E190E09D838C839D
:1003E000DF91CF9108951D821C82E2CFCF93DF93DE
:1003F000EC0163E00E947E00882341F08E819F81A2
:1004000018161906DCF401979F838E8362E0CE01F3
:100410000E947E00882341F08E819F818A30910561
:1004200034F401969F838E83DF91CF9108958AE003
:1004300090E09F838E83DF91CF9108951F821E826B
:10044000E5CFCF93DF93EC0162E00E942501688144
:100450007981CE010E94FB006BE0CE010E94250154
:100460006A817B81CE010E94FB006CE2CE010E947A
:1004700025016C817D81CE010E94FB0065E3CE01E8
:100480000E9425016E817F81CE01DF91CF910C9476
:10049000FB00CF93DF93EC010E94F601CE010E9496
:1004A000C601CE010E94B501CE01DF91CF910C941F
:1004B0002102CF93DF93CDB7DEB728970FB6F8941C
:1004C000DEBF0FBECDBF259ACE0101960E9464010A
:1004D000CE0101960E944902FBCF97FB072E16F42E
:1004E000009407D077FD09D00E94810207FC05D057
:1004F0003EF4909581959F4F0895709561957F4F3B
:100500000895AA1BBB1B51E107C0AA1FBB1FA6175A
:10051000B70710F0A61BB70B881F991F5A95A9F7AC
:1005200080959095BC01CD0108955058BB27AA270E
:100530000E94AD020C948C030E947E0338F00E944E
:10054000850320F039F49F3F19F426F40C947B03C3
:100550000EF4E095E7FB0C947503E92F0E949D03D0
:1005600058F3BA17620773078407950720F079F4E8
:10057000A6F50C94BF030EF4E0950B2EBA2FA02D18
:100580000B01B90190010C01CA01A0011124FF2740
:10059000591B99F0593F50F4503E68F11A16F0403B
:1005A000A22F232F342F4427585FF3CF469537953A
:1005B0002795A795F0405395C9F77EF41F16BA0BFF
:1005C000620B730B840BBAF09150A1F0FF0FBB1FAD
:1005D000661F771F881FC2F70EC0BA0F621F731FF6
:1005E000841F48F4879577956795B795F7959E3F53
:1005F00008F0B0CF9395880F08F09927EE0F9795E4
:10060000879508950E9409036894B1110C94C00362
:1006100008950E94A50388F09F5798F0B92F992755
:10062000B751B0F0E1F0660F771F881F991F1AF0DD
:10063000BA95C9F714C0B13091F00E94BF03B1E080
:1006400008950C94BF03672F782F8827B85F39F07F
:10065000B93FCCF3869577956795B395D9F73EF476
:1006600090958095709561957F4F8F4F9F4F08951E
:10067000E89409C097FB3EF490958095709561953C
:100680007F4F8F4F9F4F9923A9F0F92F96E9BB27F2
:100690009395F695879577956795B795F111F8CF6E
:1006A000FAF4BB0F11F460FF1BC06F5F7F4F8F4FD9
:1006B0009F4F16C0882311F096E911C0772321F0CF
:1006C0009EE8872F762F05C0662371F096E8862F67
:1006D00070E060E02AF09A95660F771F881FDAF7BE
:1006E000880F9695879597F9089597F99F6780E801
:1006F00070E060E008959FEF80EC089500240A9474
:100700001616170618060906089500240A941216EC
:100710001306140605060895092E0394000C11F41F
:10072000882352F0BB0F40F4BF2B11F460FF04C0CC
:100730006F5F7F4F8F4F9F4F089557FD9058440F25
:10074000551F59F05F3F71F04795880F97FB991F30
:1007500061F09F3F79F087950895121613061406ED
:10076000551FF2CF4695F1DF08C01616170618067A
:10077000991FF1CF86957105610508940895E89455
:10078000BB2766277727CB0197F908950E94D903E5
:100790000C948C030E947E0338F00E94850320F0A5
:1007A000952311F00C9475030C947B0311240C9485
:1007B000C0030E949D0370F3959FC1F3950F50E015
:1007C000551F629FF001729FBB27F00DB11D639F03
:1007D000AA27F00DB11DAA1F649F6627B00DA11DA9
:1007E000661F829F2227B00DA11D621F739FB00D4F
:1007F000A11D621F839FA00D611D221F749F3327BF
:10080000A00D611D231F849F600D211D822F762F57
:100810006A2F11249F5750409AF0F1F088234AF034
:10082000EE0FFF1FBB1F661F771F881F91505040A0
:10083000A9F79E3F510580F00C9475030C94C003FA
:100840005F3FE4F3983ED4F3869577956795B79527
:10085000F795E7959F5FC1F7FE2B880F911D969541
:0A086000879597F90895F894FFCFEB
:00000001FF
