:100000000C9434000C943E000C943E000C943E0082
:100010000C943E000C943E000C943E000C943E0068
:100020000C943E000C943E000C943E000C943E0058
:100030000C943E000C943E000C943E000C943E0048
:100040000C943E000C943E000C943E000C943E0038
:100050000C943E000C943E000C943E000C943E0028
:100060000C943E000C943E0011241FBECFEFD8E04C
:10007000DEBFCDBF0E943A010C9496010C940000A3
:1000800080E480937C00EAE7F0E0808182688083EE
:1000900008956770606460937C0080917A0080644A
:1000A00080937A0080917A0086FDFCCF8091780061
:1000B00090917900089552985398559856980895BC
:1000C0006330D9F0ACF0653079F0663079F44E9B4E
:1000D0000DC02FEF80E792E0215080409040E1F783
:1000E00000C0000081E008954D99F3CF80E00895AD
:1000F0006230E1F74A9BFACFECCF4B99EACFF6CFCB
:100100005B9A8FE19EE40197F1F700C000005B98D5
:100110000895411126C05A988BB18F70962F907F09
:10012000892B8BB95B9A8FE19EE40197F1F700C0B0
:1001300000005B988BB18F7090E1699FB001112432
:10014000682B6BB95B9A8FE19EE40197F1F700C0D1
:1001500000005B988FE39FE10197F1F700C000007A
:1001600008955A9AD9CFCF93DF93EC018FEF8AB9D4
:100170005B988FE59AEE0197F1F700C0000040E030
:1001800062E0CE010E94890040E068E2CE010E9458
:10019000890040E06EE0CE010E94890040E061E00D
:1001A000CE010E9489008FE19EE40197F1F700C023
:1001B000000040E060E8CE01DF91CF910C9489000F
:1001C00041E00C9489000F931F93CF938C01CB01D6
:1001D0006AE070E00E946E01C82F605D41E0C801D6
:1001E0000E94890060E36C0F41E0C801CF911F912C
:1001F0000F910C948900EF92FF920F931F93CF936E
:100200007C01062F10E040E06832D0F460E80E94E4
:1002100089000115110571F0C0E040E064E1C701FB
:100220000E948900CF5F8C2F0C2E000C990B801739
:1002300091079CF3CF911F910F91FF90EF9008953C
:1002400060EC0E94890008521109A1F3C0E040E06F
:1002500064E1C7010E948900CF5F8C2F0C2E000C37
:10026000990B801791079CF3CF911F910F91FF90ED
:10027000EF900895CF93DF931F92CDB7DEB7259A05
:10028000CE0101960E94B3002D9A69E0CE0101963D
:100290000E94FB0063E4CE0101960E94E0002FEF74
:1002A00089E698E1215080409040E1F700C00000CD
:1002B0002D9869E2CE0101960E94FB0063E670E092
:1002C000CE0101960E94E3002FEF89E698E12150CC
:1002D00080409040E1F700C00000D6CF97FB072E8A
:1002E00016F4009407D077FD09D00E94820107FC24
:1002F00005D03EF4909581959F4F08957095619536
:100300007F4F0895AA1BBB1B51E107C0AA1FBB1F4B
:10031000A617B70710F0A61BB70B881F991F5A9591
:10032000A9F780959095BC01CD010895F894FFCF71
:00000001FF
