:100000000C9434000C9451000C9451000C94510049
:100010000C9451000C9451000C9451000C9451001C
:100020000C9451000C9451000C9451000C9451000C
:100030000C9451000C9451000C9451000C945100FC
:100040000C9451000C9451000C94D7010C94510065
:100050000C9451000C9451000C9451000C945100DC
:100060000C9451000C94510011241FBECFEFD8E026
:10007000DEBFCDBF11E0A0E0B1E0E4E5F4E102C0F5
:1000800005900D92A439B107D9F721E0A4E9B1E0B8
:1000900001C01D92AD39B207E1F70E9425070C940B
:1000A000280A0C94000080E480937C00EAE7F0E0EA
:1000B00080818468808308956770606460937C00A9
:1000C00080917A00806480937A0080917A0086FD26
:1000D000FCCF809178009091790008950E945C0097
:1000E000BC01990F880B990B0E940A0820E030E0B0
:1000F00040E85AE30E94960820E030E044EB52E4E6
:100100000E94960820E030E044E352E40E94650734
:100110000E94D207CB010895209821982298239815
:1001200008956130D9F0ACF0623079F0633079F441
:100130001B9B0DC02FEF81EE94E02150804090403A
:10014000E1F700C0000081E008951A99F3CF80E044
:1001500008956111FCCF189BFACFECCF1999EACF23
:10016000F6CF22E431E0FC013183208308955B9ACD
:100170008FE99FE00197F1F700C000005B980895B8
:10018000411120C05A988BB18F70962F907F892B88
:100190008BB95B9A8FE99FE00197F1F700C00000EF
:1001A0005B988BB18F7090E1699FB0011124682B2F
:1001B0006BB95B9A8FE99FE00197F1F700C00000EF
:1001C0005B9808955A9ADFCFCF93DF93EC018FEFBE
:1001D0008AB95B988FE59AEE0197F1F700C00000AD
:1001E00040E062E0CE010E94C00040E068E2CE0143
:1001F0000E94C00040E06EE0CE010E94C00040E0DE
:1002000061E0CE010E94C0008FE39FE10197F1F70A
:1002100000C0000040E060E8CE01DF91CF910C9477
:10022000C00041E00C94C0000F931F93CF93DF9365
:100230008C01EB0141E077FD1AC060E20E94C00032
:10024000CE016AE070E00E943D07EC01605D7F4FE7
:1002500041E0C8010E94C000BE01605D7F4F41E0E7
:10026000C801DF91CF911F910F910C94C0006DE2F6
:100270000E94C000D195C195D109E2CFEF92FF92C3
:100280000F931F93CF937C01062F10E040E068325C
:10029000D0F460E80E94C0000115110571F0C0E0C3
:1002A00040E064E1C7010E94C000CF5F8C2F0C2E9C
:1002B000000C990B801791079CF3CF911F910F9120
:1002C000FF90EF90089560EC0E94C0000852110961
:1002D000A1F3C0E040E064E1C7010E94C000CF5F2D
:1002E0008C2F0C2E000C990B801791079CF3CF914B
:1002F0001F910F91FF90EF9008958F929F92AF9270
:10030000BF92CF92DF92EF92FF920F931F93CF9302
:10031000DF938C017B014A015901DC01CD90DC9017
:1003200088E090E00E945404EC010E94B1009B829E
:100330008A82BD82AC821F821E82F601D783C68369
:10034000D801ED91FC911197868197818D939C93B3
:10035000F70180819181019691838083DF91CF9114
:100360001F910F91FF90EF90DF90CF90BF90AF90D3
:100370009F908F9008958093C4009093C500E1EC06
:10038000F0E080818869808308958091C000FDCF6E
:10039000FC01808118161CF48091C000FDCF0895E7
:1003A0008091C00087FFFCCF8091C60008951F9206
:1003B0000F920FB60F9211248F9381E080939401D6
:1003C0008F910F900FBE0F901F901895CF93DF93D2
:1003D000EC01198218821B821A821D821C820696E9
:1003E0000E941B0680E88093C40085E28093C500CC
:1003F000E1ECF0E080818869808390E080E00E94F9
:1004000010077F876E87DF91CF9108956F927F925B
:100410008F929F92AF92BF92CF92DF92EF92FF9214
:100420000F931F93CF93DF93CDB7DEB7A6970FB689
:10043000F894DEBF0FBECDBF7C010F8F18A329A398
:100440003AA34BA35CA36DA37EA3CE014F960E945B
:100450000B066C0187010A5F1F4FC8010E940B0643
:100460009C012E5F3F4F2C153D050CF4CCC003962C
:100470008C159D050CF0C7C0CE014F960E940F064B
:100480006C01C8010E940F069C012E5F3F4F2C1586
:100490003D050CF485C003968C159D050CF080C0BD
:1004A000CE014F960E9413066C01C8010E941306EC
:1004B000C816D906E1F05701F2E0AF0EB11C4701B2
:1004C00024E0820E911CF70184819581883E93403F
:1004D00008F0CBC0B601CE0101960E9410052E890E
:1004E0003F894C895D89B401C5010E947D01CE011F
:1004F0004F960E9417066C01C8010E941706C81685
:10050000D90681F187010E5F1F4F5701F4E0AF0E4E
:10051000B11CF70184819581883E9340B0F0F701CA
:1005200080819181FC018680978068E070E00E9464
:100530005604F701918280828481958118161906EC
:100540000CF0AFC0019795838483B601CE0101966C
:100550000E94E2052B8D3C8D498D5A8DB501C80155
:100560000E947D0188E0FE017F96D70116960190DA
:100570000D928A95E1F7A6960FB6F894DEBF0FBEEE
:10058000CDBFDF91CF911F910F91FF90EF90DF9042
:10059000CF90BF90AF909F908F907F906F90089575
:1005A0005701F2E0AF0EB11C470124E0820E911C0E
:1005B000F70184819581883E9340B0F0F7018081F6
:1005C0009181FC016680778068E070E00E945604AB
:1005D000F7017182608284819581181619060CF0EA
:1005E0005DC0019795838483A60169E5CE010196DC
:1005F0000E9422042D8D3E8D4B8D5C8DB401C50172
:100600000E947D014DCF570122E0A20EB11C47018F
:1006100084E0880E911CF70184819581883E934087
:10062000A8F0F70180819181FC016680778068E005
:1006300070E00E945604F701718260828481958186
:100640001816190644F5019795838483A60168E579
:10065000CE0101960E9422042D8D3E8D4B8D5C8D26
:10066000B401C5010E947D0107CFF701808191810E
:10067000FC016680778068E070E00E945604F70114
:100680007182608284819581181619066CF4019735
:10069000958384831FCF15821482D8CF158214824C
:1006A000A3CF1582148251CF1582148213CFDB01A0
:1006B000ED91FC9122E431E0DC0111963C932E9304
:1006C0002281338113963C932E9312972481358196
:1006D00015963C932E93149708952091940122230C
:1006E00079F0FC0184819581892B29F08091C000EB
:1006F0008091C000FBCF8091C0008091C000FBCFF3
:100700000895CF93DF93FC018789878780E2808BF0
:100710009DE3918B828BC081D1812697A881B9817D
:10072000AE0FBF1F12968D919C9197FD21C08BE259
:10073000838BA881B981AE0FBF1F12968D919C91BA
:100740002AE030E0B9010E943D07605D648BA8811A
:10075000B981AE0FBF1F12968D919C91B9010E9475
:100760003D07805D858BCF010296DF91CF91089583
:100770008DE2DECFDC01ED91FC9136972081318155
:10078000820F931F0C948103DC01ED91FC9136974D
:1007900020813181820F931FFC018481958108950E
:1007A000DC01ED91FC9138970190F081E02DE80F8C
:1007B000F91FA081B18116978D919C91E80FF91FC7
:1007C000848195810895CF93DF93EC01DB018D91B6
:1007D0009C9111979983888312966D917C910697CD
:1007E000DC01ED91FC91EC0FFD1F718360838EE0C5
:1007F000E6E0F1E0DE01129601900D928A95E1F7B4
:10080000FE01709687E0DF011D928A95E9F74F8B14
:10081000E881F98136970190F081E02DEC0FFD1F02
:100820003383228390E080E00E941007E881F98101
:10083000369720813181C20FD31F7D836C83DF9176
:10084000CF910895FF920F931F93CF93DF93EC0105
:10085000F62E8A0148960E94B10080E591E09983C6
:1008600088838CE591E0998F888F8EE0E6E0F1E057
:10087000DE01129601900D928A95E1F7FE017096C5
:1008800087E0DF011D928A95E9F7FF8A1B8F0A8FA7
:1008900090E080E00E9410077D8F6C8FDF91CF91F8
:1008A0001F910F91FF9008950C9403090C949F09D8
:1008B000FC0181E090E02081222311F090E080E0B3
:1008C000089521E0FC012083089508950895CF93B1
:1008D000DF93FC01C081D1812697A881B981A80F3F
:1008E000B91F12968D919C912AE030E0B9010E94C7
:1008F0003D07605D6687A881B981AE0FBF1F129664
:100900008D919C91B9010E943D07805D8787CF0141
:100910000296DF91CF910895CF93DF93FC01A081E0
:10092000B1811697ED91FC91E80FF91FC081D1813B
:100930002697A881B981AE0FBF1F12968D919C9109
:100940002AE030E0B9010E943D07605D6687A8811A
:10095000B981AE0FBF1F12968D919C91B9010E9473
:100960003D07805D8787CF010296DF91CF91089583
:10097000DC01ED91FC91369720813181820F931F2C
:10098000FC01848195810895DC01ED91FC913897FB
:100990000190F081E02DE80FF91FA081B181169739
:1009A0008D919C91E80FF91F848195810895CF93D3
:1009B000DF93EC01DB018D919C91119799838883E2
:1009C00012962D913C910697DC01ED91FC91EC0F74
:1009D000FD1F318320838DE0EBE1F1E0DE01129613
:1009E00001900D928A95E1F7188A1F86E881F981B6
:1009F00036970190F081E02DEC0FFD1F5383428369
:100A000090E080E00E941007E881F981369720810C
:100A10003181C20FD31F7D836C83DF91CF91089505
:100A20000F931F93CF93DF93EC018B0141960E94AC
:100A3000B1008AE691E09983888386E791E09A8BFA
:100A4000898B8DE0EBE1F1E0DE01129601900D92D1
:100A50008A95E1F7188A1F861C8B0B8B90E080E04B
:100A60000E9410077E8B6D8BDF91CF911F910F91AC
:100A70000895CF93DF93FC01C081D1812697A8818F
:100A8000B981A80FB91F12968D919C912AE030E090
:100A9000B9010E943D07605D648BA881B981AE0FEA
:100AA000BF1F12968D919C91B9010E943D07805DF8
:100AB000858BCF010296DF91CF910895CF93DF937D
:100AC000FC01A081B1811697ED91FC91E80FF91F0F
:100AD000C081D1812697A881B981AE0FBF1F129620
:100AE0008D919C912AE030E0B9010E943D07605D44
:100AF000648BA881B981AE0FBF1F12968D919C9116
:100B0000B9010E943D07805D858BCF010296DF9180
:100B1000CF910895DC01ED91FC91369720813181D0
:100B2000820F931FFC01848195810895DC01ED9172
:100B3000FC9138970190F081E02DE80FF91FA0811A
:100B4000B18116978D919C91E80FF91F8481958151
:100B50000895CF93DF93EC01DB018D919C91119768
:100B60009983888312962D913C910697DC01ED9133
:100B7000FC91EC0FFD1F3183208382E1EAE2F1E07A
:100B8000DE01129601900D928A95E1F71D8A1C8A6A
:100B9000E881F98136970190F081E02DEC0FFD1F7F
:100BA0005383428390E080E00E941007E881F9813E
:100BB000369720813181C20FD31F7D836C83DF91F3
:100BC000CF9108950F931F93CF93DF93EC018B0187
:100BD00046960E94B10084E891E09983888380E979
:100BE00091E09F8B8E8B82E1EAE2F1E0DE011296CA
:100BF00001900D928A95E1F71D8A1C8A198F088F42
:100C000090E080E00E9410077B8F6A8FDF91CF9188
:100C10001F910F910895FC01808191810895FC013D
:100C2000828193810895FC01848195810895FC015E
:100C3000868197810895CF93DF93EC010E94530042
:100C4000CE010E948C00CE010E94E4001D821C8215
:100C50001F821E8260E0CE010E943E0168E5CE0147
:100C60000E9411016AE3CE010E94110169E0CE01E8
:100C70000E943E0169E5CE010E9411016AE3CE01A6
:100C80000E94110168E2CE010E943E0163E5CE019F
:100C90000E94110160E5CE010E94110164E4CE01C1
:100CA0000E9411016AE3CE010E94110161E3CE01AD
:100CB0000E943E0164E5CE010E94110169E4CE016B
:100CC0000E9411016BE4CE010E9411016AE3CE0182
:100CD000DF91CF910C941101CF93DF93EC0160E091
:100CE0000E946E009983888361E0CE010E946E00AD
:100CF0009B838A83DF91CF910895CF93DF93EC019B
:100D000061E00E949100882351F08C819D812E81A9
:100D10003F81821B930B97FD1DC09D838C8360E0F8
:100D2000CE010E949100882359F08C819D812E81F3
:100D30003F81820F931F853191052CF49D838C8315
:100D4000DF91CF91089584E190E09D838C83DF91C2
:100D5000CF9108951D821C82E2CFCF93DF93EC01E7
:100D600063E00E949100882341F08E819F811816D4
:100D70001906DCF401979F838E8362E0CE010E9406
:100D80009100882341F08E819F818A30910534F44F
:100D900001969F838E83DF91CF9108958AE090E042
:100DA0009F838E83DF91CF9108951F821E82E5CFAE
:100DB000CF93DF93EC0162E00E943E01688179816C
:100DC000CE010E9414016BE0CE010E943E016A81B7
:100DD0007B81CE010E9414016CE2CE010E943E0193
:100DE0006C817D81CE010E94140165E3CE010E94D9
:100DF0003E016E817F81CE01DF91CF910C94140171
:100E0000CF93DF93EC010E94AD06CE010E947D06D8
:100E1000CE010E946C06CE01DF91CF910C94D806D2
:100E2000FC010FB6F8946091990170919A0180913C
:100E30009B0190919C010FBE309721F060837183DC
:100E400082839383089508950895CF93DF93CDB758
:100E5000DEB768970FB6F894DEBF0FBECDBF259AF8
:100E6000CE0141960E941B06CE0101960E94E6012A
:100E7000CE0141960E940007FBCF97FB072E16F488
:100E8000009407D077FD09D00E94510707FC05D0D8
:100E90003EF4909581959F4F0895709561957F4F91
:100EA0000895AA1BBB1B51E107C0AA1FBB1FA617B1
:100EB000B70710F0A61BB70B881F991F5A95A9F703
:100EC00080959095BC01CD0108955058BB27AA2765
:100ED0000E947D070C945C080E944E0838F00E9426
:100EE000550820F039F49F3F19F426F40C944B0870
:100EF0000EF4E095E7FB0C944508E92F0E946D087D
:100F000058F3BA17620773078407950720F079F43E
:100F1000A6F50C948F080EF4E0950B2EBA2FA02D99
:100F20000B01B90190010C01CA01A0011124FF2796
:100F3000591B99F0593F50F4503E68F11A16F04091
:100F4000A22F232F342F4427585FF3CF4695379590
:100F50002795A795F0405395C9F77EF41F16BA0B55
:100F6000620B730B840BBAF09150A1F0FF0FBB1F03
:100F7000661F771F881FC2F70EC0BA0F621F731F4C
:100F8000841F48F4879577956795B795F7959E3FA9
:100F900008F0B0CF9395880F08F09927EE0F97953A
:100FA000879508950E94D9076894B1110C94900810
:100FB00008950E94750888F09F5798F0B92F9927D7
:100FC000B751B0F0E1F0660F771F881F991F1AF034
:100FD000BA95C9F714C0B13091F00E948F08B1E002
:100FE00008950C948F08672F782F8827B85F39F001
:100FF000B93FCCF3869577956795B395D9F73EF4CD
:1010000090958095709561957F4F8F4F9F4F089574
:10101000E89409C097FB3EF4909580957095619592
:101020007F4F8F4F9F4F9923A9F0F92F96E9BB2748
:101030009395F695879577956795B795F111F8CFC4
:10104000FAF4BB0F11F460FF1BC06F5F7F4F8F4F2F
:101050009F4F16C0882311F096E911C0772321F025
:101060009EE8872F762F05C0662371F096E8862FBD
:1010700070E060E02AF09A95660F771F881FDAF714
:10108000880F9695879597F9089597F99F6780E857
:1010900070E060E008959FEF80EC089500240A94CA
:1010A0001616170618060906089500240A94121643
:1010B0001306140605060895092E0394000C11F476
:1010C000882352F0BB0F40F4BF2B11F460FF04C023
:1010D0006F5F7F4F8F4F9F4F089557FD9058440F7C
:1010E000551F59F05F3F71F04795880F97FB991F87
:1010F00061F09F3F79F08795089512161306140644
:10110000551FF2CF4695F1DF08C0161617061806D0
:10111000991FF1CF86957105610508940895E894AB
:10112000BB2766277727CB0197F908950E94A90866
:101130000C945C080E944E0838F00E94550820F07C
:10114000952311F00C9445080C944B0811240C9431
:1011500090080E946D0870F3959FC1F3950F50E0C1
:10116000551F629FF001729FBB27F00DB11D639F59
:10117000AA27F00DB11DAA1F649F6627B00DA11DFF
:10118000661F829F2227B00DA11D621F739FB00DA5
:10119000A11D621F839FA00D611D221F749F332715
:1011A000A00D611D231F849F600D211D822F762FAE
:1011B0006A2F11249F5750409AF0F1F088234AF08B
:1011C000EE0FFF1FBB1F661F771F881F91505040F7
:1011D000A9F79E3F510580F00C9445080C949008A7
:1011E0005F3FE4F3983ED4F3869577956795B7957E
:1011F000F795E7959F5FC1F7FE2B880F911D969598
:10120000879597F908950F931F93CF93DF938230BB
:10121000910510F482E090E0E0919701F09198013F
:1012200030E020E0B0E0A0E0309799F421153105DE
:1012300009F44AC0281B390B24303105D8F58A81BE
:101240009B816115710589F1FB0193838283FE0106
:1012500011C0408151810281138148175907E0F084
:101260004817590799F4109761F012960C9312974A
:1012700013961C933296CF01DF91CF911F910F915E
:1012800008950093970110939801F4CF211531052B
:1012900051F04217530738F0A901DB019A01BD0153
:1012A000DF01F801C1CFEF01F9CF9093980180934E
:1012B0009701CDCFFE01E20FF31F8193919322504E
:1012C000310939832883D7CF209195013091960138
:1012D000232B41F4209102013091030130939601B8
:1012E00020939501209100013091010121153105D4
:1012F00041F42DB73EB74091040150910501241BE4
:10130000350BE0919501F0919601E217F307A0F4F7
:101310002E1B3F0B2817390778F0AC014E5F5F4F4B
:101320002417350748F04E0F5F1F509396014093E6
:101330009501819391939FCFF0E0E0E09CCFCF9314
:10134000DF930097E9F0FC01329713821282A0919B
:101350009701B0919801ED0130E020E01097A1F4E1
:1013600020813181820F931F209195013091960148
:101370002817390709F061C0F0939601E0939501B1
:10138000DF91CF910895EA01CE17DF07E8F54A8192
:101390005B819E0141155105B1F7E901FB83EA83A9
:1013A00049915991C40FD51FEC17FD0761F4808155
:1013B00091810296840F951FE90199838883828128
:1013C00093819B838A83F0E0E0E012968D919C915B
:1013D00013970097B9F52D913C911197CD01029685
:1013E000820F931F2091950130919601281739079C
:1013F00039F6309751F51092980110929701B093F9
:101400009601A0939501BCCFD383C28340815181C3
:10141000840F951FC817D90761F44E5F5F4F88810D
:101420009981480F591F518340838A819B819383FF
:1014300082832115310509F0B0CFF0939801E09334
:1014400097019ECFFD01DC01C0CF13821282D7CF5E
:04145000F894FFCF3E
:1014540000009D0120004E657720416E676C652079
:101464006F6E2000000000000000004E65772073BE
:1014740070656564203D200000004E657720737020
:10148400656564207469636B203D200000000000E2
:1014940000002307240750015C011800000000002D
:1014A4008103C403E8FFE8FFE8FF0000BA03D003A8
:1014B4006A0176011100000000006704B804EFFF20
:1014C400EFFFEFFF00008C04C404840190011600B8
:1014D4000000000039058A05EAFFEAFFEAFF000080
:0414E4005E05960506
:00000001FF
